:100000000C9463000C948B000C948B000C948B006C
:100010000C948B000C948B000C948B000C948B0034
:100020000C948B000C948B000C948B000C948B0024
:100030000C948B000C948B000C948B000C948B0014
:100040000C94A5060C948B000C948B000C948B00E4
:100050000C948B000C948B000C948B000C948B00F4
:100060000C9478050C948B0000000008000201003D
:100070000003040700000000000000000102040863
:100080001020408001020408102001020408102002
:10009000040404040404040402020202020203032E
:1000A00003030303000000002300260029000000D2
:1000B0000000250028002B0000000000240027007D
:1000C0002A00C6001F0511241FBECFEFD8E0DEBFF7
:1000D000CDBF11E0A0E0B1E0EEE1F0E102C005909B
:1000E0000D92AE32B107D9F722E0AEE2B1E001C025
:1000F0001D92A138B207E1F710E0C6ECD0E004C0D1
:100100002297FE010E940908C23CD107C9F70E944C
:10011000F8070C940D080C94000010923101109215
:10012000300110922F0110922E0162E470E085EBF5
:1001300091E00E94130568ED70E085EB91E00E946C
:100140001A056BEF70E085EB91E00E94150561E008
:100150008DE00C945F0786E491E00E9409048823F7
:10016000A1F020912E0130912F01F901EE5CFE4F9C
:100170008083C901019690932F0180932E014497AB
:1001800020F010922F0110922E010895EF920F93FC
:1001900083E0E82E04E020E031E043E051E067E056
:1001A00071E086E491E00E9428010F91EF9008959C
:1001B000609130017091310180912E0190912F0159
:1001C00068177907B9F06E5C7E4F41E050E085EB2F
:1001D00091E00E948A048091300190913101019652
:1001E0009093310180933001449720F010923101B7
:1001F00010923001089585EB91E00E9430041816AA
:100200001906D4F485EB91E00E943804811109C0ED
:1002100080912E0190912F019093310180933001B4
:10022000EACF823011F461E003C0833021F760E04F
:100230008DE00E949807DFCF0895862F642F0C94DD
:100240005F07862F642F0C949807862F0C94CE0797
:100250004F925F926F927F928F929F92AF92BF92D6
:10026000CF92DF92EF920F93CF93DF93EC014B018C
:100270003A01590102960E942A0487E191E099838C
:1002800088836E018CE1C80ED11C26018CE3480ED8
:10029000511CC6010E942A0486E0C80ED11CC41459
:1002A000D504B9F7FE01EE59FF4F71826082329694
:1002B000B182A082329600833196E0823797918294
:1002C000808238968AE090E091838083329684EF32
:1002D00091E091838083339611821082719710820E
:1002E000118212821382C459DF4F1882DF91CF919D
:1002F0000F91EF90DF90CF90BF90AF909F908F9035
:100300007F906F905F904F9008952F923F924F9201
:100310005F926F927F928F929F92AF92BF92CF9295
:10032000DF92EF92FF920F931F93CF93DF93CDB79E
:10033000DEB728970FB6F894DEBF0FBECDBF988703
:100340008F83F12C4C0186E6880E911C0F81188555
:100350000E591F4FD4018C91F816A0F4AF81B885C7
:100360008D919C91F801A081B181AF0DB11DFC016F
:100370002081318142E06C918F819885F901099546
:10038000F394E8CF512CEF81F885E959FF4FFA83B8
:10039000E9830F8118850C591F4FC12CD12C760190
:1003A000C3948F8198858E599F4F9C838B83A9819D
:1003B000BA818C91581608F088C0A52CB12CAF8159
:1003C000B8858D919C91F801A081B181AA0DBB1DCA
:1003D000FC012081318141E06C918F819885F90188
:1003E0000995AF81B8858D919C91F801A081B1816B
:1003F000AA0DBB1DFC012281338140E06C918F81ED
:100400009885F9010995D701C601052C04C0880F0C
:10041000991FAA1FBB1F0A94D2F79C011C012094AC
:100420003094412CD4018C91EF81F8854081518129
:10043000481648F5642C712CEB81FC81A081B181B8
:10044000A60DB71DFA01448155816C918F81988565
:100450002D833E83FA010995660C771C2D813E8120
:10046000EF81F885E60DF71D892B29F480859185AC
:10047000822B932B04C080859185822193219187C3
:1004800080874394CFCFF801A081B181AA0DBB1D15
:10049000FA012281338141E06C918F819885F901C5
:1004A0000995AF81B8858D919C91F801A081B181AA
:1004B000AA0DBB1DFC012081318140E06C918F8130
:1004C0009885F9010995539472CF28960FB6F89440
:1004D000DEBF0FBECDBFDF91CF911F910F91FF9077
:1004E000EF90DF90CF90BF90AF909F908F907F90D4
:1004F0006F905F904F903F902F900895FC0180E0A7
:1005000090E0258D368D2617370739F001963696FF
:100510008A309105B1F78FEF9FEF0895DC0126E057
:10052000629FA00DB11D112490965C934E935F972E
:1005300021E091962C939197FC01E459FF4F208183
:1005400031960190F081E02D222331F0309749F06F
:10055000611107C0DC0102C0309719F05C968C91E4
:1005600009940895CF92DF92FF920F931F93CF9338
:10057000DF931F92CDB7DEB76C01F62EFC0186E04B
:10058000689FE00DF11D112411A2878D90A181308B
:100590009105F1F01CF4892B51F046C08230910591
:1005A00099F1039709F040C040E050E031C0442386
:1005B000D9F141E050E0C6010E948E020E94EF0690
:1005C000F601E85AFF4F60837183828393832CC0C6
:1005D00049830E94EF06F601E85AFF4F008111811E
:1005E00022813381601B710B820B930B7296008109
:1005F000118120E030E049810617170728073907E5
:1006000018F442E050E004C041110EC043E050E055
:100610006F2DC6010F90DF91CF911F910F91FF9029
:10062000DF90CF900C948E020F90DF91CF911F91AD
:100630000F91FF90DF90CF9008952F923F924F92AD
:100640005F926F927F928F929F92AF92BF92CF9262
:10065000DF92EF92FF920F931F93CF93DF931F923E
:10066000CDB7DEB71C01FC014AE08FEF9FEF278D6D
:1006700030A1232B21F4148E968F858F11A2415027
:1006800036964111F4CF712C610126E6C20ED11CC1
:10069000510187E6A80EB11C4101A0E68A0E911C0B
:1006A00046E0442ED6018C91781608F055C0612C96
:1006B0008101070D111D070D111D085F1F4FF50169
:1006C000E0806E1408F046C0F80140815181062C8C
:1006D00002C0569547950A94E2F741707E9C7001DE
:1006E0001124E60CF11CD401ED91FC91EE0DFF1DDF
:1006F0005080B701C10149830E947E02498197FD64
:1007000002C0682F1BC0019619F5442309F180E04F
:1007100090E060E070E0F101E80FF91F248D2111F5
:1007200011C0469EF001479EF00D1124E20DF31D0D
:10073000548EF68EE58E10A2178E41E0C1010E9404
:10074000B20206C06F5F7F4F06966A30710519F7D7
:100750006394B5CF7394A6CF20E030E080E0F10140
:10076000E20FF31F91A1911181E02A5F3F4F2C33DB
:100770003105A9F70F90DF91CF911F910F91FF9055
:10078000EF90DF90CF90BF90AF909F908F907F9031
:100790006F905F904F903F902F900895CF92DF928F
:1007A000EF92FF920F931F93CF93DF938C010E94E0
:1007B000EF06E801C45ADF4FC880D980EA80FB8089
:1007C0006C197D098E099F09F801E859FF4FC08017
:1007D000D180E12CF12CC616D706E806F90670F494
:1007E000C8010E948501C8010E941D03182F0E94A4
:1007F000EF06688379838A839B8301C010E0812F91
:10080000DF91CF911F910F91FF90EF90DF90CF90EC
:1008100008950F931F93CF93DF93EC018C0104593C
:100820001F4F81E0F8018083CE010E94CE03882310
:1008300049F089A1882331F08F8D98A1019711F497
:100840008C8D03C0F801108280E0DF91CF911F9161
:100850000F910895FC01108214821382158208956D
:100860008091E80190E02091E901821B91090895AF
:100870002091E9018091E801281750F4E22FF0E07F
:10088000E651FE4F808190E02F5F2093E9010895AB
:100890008FEF9FEF0895E091E9018091E801E8175B
:1008A00030F4F0E0E651FE4F808190E008958FEF44
:1008B0009FEF08950895E091C101F091C201309732
:1008C000E1F03091E9012091E8013217B0F040E009
:1008D000242F30E02617370754F4DC01A20FB31F92
:1008E0005C91D901A651BE4F5C934F5FF1CF10923E
:1008F000E9016093E801CB0109940895E091C301F7
:10090000F091C401309729F01092C7011092C601EE
:1009100009940895CF92DF92EF92FF920F931F9365
:10092000CF93DF937C01CB018A012091C501222363
:1009300089F0EB016B01C40ED51ECC15DD0569F005
:100940006991D701ED91FC910190F081E02DC701F3
:100950000995F3CF642F0E944505C801DF91CF911F
:100960001F910F91FF90EF90DF90CF900895CF935C
:10097000DF931F92CDB7DEB769832091C501222393
:10098000D1F02091C601203240F021E030E0FC019E
:100990003383228380E090E015C08091C701E82F67
:1009A000F0E0E853FE4F998190838F5F8093C701F9
:1009B0008093C60105C061E0CE0101960E94450505
:1009C00081E090E00F90DF91CF910895FC011382B8
:1009D000128248EE53E060E070E044835583668302
:1009E000778381E291E09183808308951092E901F9
:1009F0001092E8011092C7011092C6010C942305D1
:100A0000CF93DF93EC01862F0E9441058EE794E09F
:100A10000E9463058BE594E00E945E05CE01DF91A4
:100A2000CF910C94F6040C9400057093C20160936E
:100A3000C10108957093C4016093C301089585EBCB
:100A400091E00C94E6041092770281E080937502A5
:100A50001092740261E082E10E94980761E083E1F4
:100A60000E949807E9EBF0E080818E7F808380818F
:100A70008D7F808388E48093B80085E48093BC00F8
:100A80000895880F8093BA000895613298F42091F8
:100A90007702243089F460932C02FC018EE292E00C
:100AA000DC012A2F281B261718F421912D93F9CF4A
:100AB00080E0089581E0089582E0089590937102A6
:100AC0008093700208959093730280937202089548
:100AD00085ED8093BC008091BC0084FDFCCF10921A
:100AE0007702089585EC8093BC00109277020895F8
:100AF0001F920F920FB60F9211242F933F934F9393
:100B00005F936F937F938F939F93AF93BF93EF9375
:100B1000FF938091B900887F803609F49EC078F5F4
:100B2000883209F45DC090F4803109F456C038F47D
:100B3000882309F4F5C0883009F44FC0F5C0883126
:100B400009F44EC0803209F45FC0EEC0803409F46D
:100B50006AC058F4803309F457C0883309F0E4C000
:100B600080930A020E947205DFC0803509F44FC0ED
:100B7000883509F45DC0883409F0D6C0D3C08839FF
:100B800009F4C4C0A8F4883709F467C038F488367B
:100B900009F463C0803709F460C0C6C0883809F41E
:100BA000B5C0803909F45FC0803809F0BDC05BC0B2
:100BB000803B09F483C038F4803A09F466C0883A6F
:100BC00009F47CC0B1C0803C09F4A4C0883C09F49D
:100BD000A1C0883B09F487C0A7C08091760210C0ED
:100BE00090914F0280914E02981770F5E0914F025C
:100BF00081E08E0F80934F02F0E0E05BFD4F80813B
:100C00008093BB0085EC83C080930A028BC0E09187
:100C10004F0281E08E0F80934F028091BB00F0E085
:100C2000E05BFD4F808390914F0280914E026BC03C
:100C3000E0914F0281E08E0F80934F028091BB00C4
:100C4000F0E0E05BFD4F80838091750281116AC006
:100C500081E08093740284EA5EC083E0809377022F
:100C600010920B02CFCF80910B02803208F04EC061
:100C7000E0910B0281E08E0F80930B028091BB000C
:100C8000F0E0E45FFD4F8083BDCF0E94720580914C
:100C90000B02803230F4E0910B02F0E0E45FFD4F94
:100CA000108260910B0270E0E0917002F09171028D
:100CB0008CE092E0099510920B0236C084E080939C
:100CC000770210922D0210922C02E0917202F091A4
:100CD0007302099580912C02811105C081E08093F7
:100CE0002C0210922E02E0912D0281E08E0F809353
:100CF0002D02F0E0E25DFD4F80818093BB0090917A
:100D00002D0280912C02981708F47CCF85E88093FF
:100D1000BC000AC085EC8093BC001092770204C02E
:100D200010920A020E946805FF91EF91BF91AF9166
:100D30009F918F917F916F915F914F913F912F91F3
:100D40000F900FBE0F901F9018951F920F920FB625
:100D50000F9211242F933F938F939F93AF93BF9341
:100D60008091790290917A02A0917B02B0917C02ED
:100D70003091780223E0230F2D3720F40196A11D36
:100D8000B11D05C026E8230F0296A11DB11D2093B9
:100D900078028093790290937A02A0937B02B093B9
:100DA0007C0280917D0290917E02A0917F02B091A1
:100DB00080020196A11DB11D80937D0290937E0259
:100DC000A0937F02B0938002BF91AF919F918F91CA
:100DD0003F912F910F900FBE0F901F9018952FB736
:100DE000F8946091790270917A0280917B029091DF
:100DF0007C022FBF0895789484B5826084BD84B549
:100E0000816084BD85B5826085BD85B5816085BD05
:100E1000EEE6F0E0808181608083E1E8F0E010821E
:100E2000808182608083808181608083E0E8F0E05F
:100E3000808181608083E1EBF0E080818460808349
:100E4000E0EBF0E0808181608083EAE7F0E0808180
:100E500084608083808182608083808181608083E0
:100E60008081806880831092C1000895833081F072
:100E700028F4813099F08230A1F008958730A9F0EC
:100E80008830B9F08430D1F4809180008F7D03C028
:100E9000809180008F7780938000089584B58F774C
:100EA00002C084B58F7D84BD08958091B0008F7796
:100EB00003C08091B0008F7D8093B0000895CF93E0
:100EC000DF9390E0FC01E458FF4F2491FC01E057D0
:100ED000FF4F8491882349F190E0880F991FFC010E
:100EE000E854FF4FA591B49182559F4FFC01C591E5
:100EF000D4919FB7611108C0F8948C9120958223FA
:100F00008C93888182230AC0623051F4F8948C91CA
:100F1000322F309583238C938881822B888304C061
:100F2000F8948C91822B8C939FBFDF91CF91089581
:100F30000F931F93CF93DF931F92CDB7DEB7282F68
:100F400030E0F901E859FF4F8491F901E458FF4F6F
:100F50001491F901E057FF4F04910023C9F0882351
:100F600021F069830E9436076981E02FF0E0EE0FDF
:100F7000FF1FE255FF4FA591B4919FB7F8948C9154
:100F8000611103C01095812301C0812B8C939FBFF9
:100F90000F90DF91CF911F910F910895CF93DF9321
:100FA000282F30E0F901E859FF4F8491F901E45806
:100FB000FF4FD491F901E057FF4FC491CC2391F03A
:100FC00081110E943607EC2FF0E0EE0FFF1FEC5569
:100FD000FF4FA591B4912C912D2381E090E021F455
:100FE00080E002C080E090E0DF91CF910895089505
:100FF0000E94FB060E94F7070E948D00C0E0D0E02F
:101000000E94AB002097E1F30E940000F9CFEE0FA1
:0E101000FF1F0590F491E02D0994F894FFCF96
:10101E0007090508030406313233343536373839BB
:10102E002A3023000000001D0121012501000000CF
:0E103E0000B7048A04300438044B045A04003E
:00000001FF
